:100B5900120B9F1208008F25E52560F7FB7A0075B7
:0B0B69000C027D017F02120B3C80E8B3
:060BB300C2A58F80D2A74D
:080BB9007F027EEFDEFEDFFC8F
:010BC1002211
:0A0BCE00C2A6120BB3C2A7020BB9B6
:100B1E00CFCDCFCECCCE1209C87C007D0A1209C82B
:040B2E00ED2430FF83
:0A0B3200D2A6120BB3C2A7020BB942
:100B7400AE07BE0104ED148006BE0209ED243F4415
:060B840080FF120BCE22DF
:100B9F007F38120BCE7F0C120BCE7F06120BCE7F3F
:040BAF0001020BCE66
:0A0BD800AC03120B74AF04020B32E1
:060AFB008B228A238924EE
:100B0100120B74E4FDAB22AA23A9248D8275830004
:0C0B1100120989FF6006120B320D80E90A
:010B1D0022B5
:0C0AC8007F0AEA24FFFDE434FFFC7E00FE
:080AD4008E0D8F0E8C0F8D10AA
:100ADC007F017E00E4FBEBC39510E50F6480F87496
:0E0AEC008098500AAC0DAD0E1209B60B80E8D2
:010AFA0022D9
:040B3C008A0A8B0B8B
:100B4000120B74AA0CEAD39400400D120AC8AC0A26
:080B5000AD0B120B1E1A80ED23
:010B5800227A
:100A1D00120B74C3EA64809480400B7F2B120B324F
:100A2D008A168B17800E7F2D120B32C3E49BF517A0
:100A3D00E49AF516AA15EAD39400400D120AC8AC33
:090A4D0016AD17120B1E1A80ED04
:010A5600227D
:040A57008A1A8B1B51
:100A5B00120B74AA1CEAD3940040297F10120ACA05
:100A6B00AC1AAD1BCFCDCFCECCCE1209C8EF540FE5
:100A7B00FEC3940AEE5004243080022437FF120B7D
:040A8B00321A80D1CA
:010A8F002244
:040A90008A1F8B200E
:100A9400120B74AA21EAD394004028EA24FFFDE44F
:100AA40034FFFC7F027E00120AD4AC1FAD20CFCDF0
:100AB400CFCECCCE1209C8EF54012430FF120B3232
:030AC4001A80D2C3
:010AC700220C
:100B8A00EF1FAC0670011E4C600A7D027CEFDCFE92
:040B9A00DDFC80EC12
:010B9E002234
:10080000E4F5087590FFC2932097137F14FE120B36
:100810008A3097FD7F147E00120B8A75080120969E
:10082000147F147E00120B8A3096FD7F147E001216
:100830000B8A7508052095147F147E00120B8A30F0
:1008400095FD7F147E00120B8A7508092094147F91
:10085000147E00120B8A3094FD7F147E00120B8AE6
:1008600075080D7590FFC2922097147F147E0012B8
:100870000B8A3097FD7F147E00120B8A75080220C8
:1008800096147F147E00120B8A3096FD7F147E0032
:10089000120B8A7508062095147F147E00120B8AAD
:1008A0003095FD7F147E00120B8A75080A2094147F
:1008B0007F147E00120B8A3094FD7F147E00120B91
:1008C0008A75080E7590FFC2912097147F147E00E0
:1008D000120B8A3097FD7F147E00120B8A75080375
:1008E0002096147F147E00120B8A3096FD7F147EB2
:1008F00000120B8A7508072095147F147E00120BD6
:100900008A3095FD7F147E00120B8A75080B2094A7
:10091000147F147E00120B8A3094FD7F147E001227
:100920000B8A75080F7590FFC2902097147F147E74
:1009300000120B8A3097FD7F147E00120B8A750817
:10094000042096147F147E00120B8A3096FD7F14CB
:100950007E00120B8A7508082095147F147E001201
:100960000B8A3095FD7F147E00120B8A75080C20CF
:1009700094147F147E00120B8A3094FD7F147E0045
:08098000120B8A750810AF0884
:01098800224C
:03000000020BC22E
:0C0BC200787FE4F6D8FD758125020B5900
:10098900BB010CE58229F582E5833AF583E0225023
:1009990006E92582F8E622BBFE06E92582F8E2226D
:0D09A900E58229F582E5833AF583E4932287
:1009B600EF8DF0A4A8F0CF8CF0A428CE8DF0A42E55
:0209C600FE220F
:1009C800BC000BBE0029EF8DF084FFADF022E4CC13
:1009D800F875F008EF2FFFEE33FEEC33FCEE9DECDC
:1009E800984005FCEE9DFE0FD5F0E9E4CEFD22ED22
:1009F800F8F5F0EE8420D21CFEADF075F008EF2F6C
:100A0800FFED33FD4007985006D5F0F222C398FD5C
:050A18000FD5F0EA22F9
:00000001FF
