:02084600AD07FC
:10084800E4FB74807E00A803088006CEA2E713CEDE
:1008580013D8F8FFEDF582EF558224FF92B4D2B693
:0A086800C2B60BBB08DCD2B5C2B566
:010872002263
:040873007D927C00F6
:10087700AA07AF05120846AF027480A807088002CE
:10088700C313D8FCF4F5807F017E001208997580A8
:02089700FF223E
:10080000C2B6C2B57DF27C00E4FF1208777F011208
:1008100008737F021208737D9E7C007F03120877A5
:100820007DFE7C007F041208777D927C007F05129C
:1008300008777D927C007F061208777DEE7C007F32
:060840000712087780BEDC
:10089900EF1FAC0670011E4C600A7D027CEFDCFE86
:0408A900DDFC80EC06
:0108AD002228
:030000000208AE45
:0C08AE00787FE4F6D8FD75810702080091
:00000001FF
