:100A7D0012074D120A047B61E4FDFF1208EE80F6A9
:1000030000000000000000000000000000000000ED
:10001300000000F800000000000000333000000082
:1000230000100C06100C0600000000000000000089
:1000330040C07840C0784000043F04043F040400FB
:10004300007088FC08300000001820FF211E00000B
:10005300F008F000E018000000211C031E211E0020
:1000630000F00888700000001E21232419272110A6
:1000730010160E0000000000000000000000000049
:10008300000000E0180402000000000718204000F0
:1000930000020418E00000000040201807000000E0
:1000A300404080F0804040000202010F0102020044
:1000B300000000F0000000000101011F0101010028
:1000C300000000000000000080B07000000000008D
:1000D3000000000000000000000101010101010116
:1000E30000000000000000000030300000000000AD
:1000F3000000000080601804006018060100000082
:1001030000E010080810E000000F102020100F007E
:10011300001010F8000000000020203F2020000005
:10012300007008080888700000302824222130005D
:1001330000300888884830000018202020110E0065
:100143000000C02010F8000000070424243F24000E
:1001530000F80888880808000019212020110E00E3
:1001630000E0108888180000000F112020110E00F5
:1001730000380808C83808000000003F00000000ED
:100183000070880808887000001C222121221C00AE
:1001930000E010080810E0000000312222110F00D7
:1001A300000000C0C000000000000030300000006C
:1001B30000000080000000000000806000000000DC
:1001C30000008040201008000001020408102000F5
:1001D3004040404040404000040404040404040040
:1001E30000081020408000000020100804020100D5
:1001F300007048080808F0000000003036010000D5
:10020300C030C828E810E0000718272423140B0087
:100213000000C038E0000000203C23020227382001
:1002230008F8888888700000203F202020110E00E5
:10023300C0300808080838000718202020100800DC
:1002430008F808080810E000203F202020100F00C5
:1002530008F88888E8081000203F20202320180091
:1002630008F88888E8081000203F200003000000F9
:10027300C03008080838000007182020221E02009A
:1002830008F808000008F808203F210101213F2059
:10029300000808F8080800000020203F2020000084
:1002A30000000808F8080800C08080807F00000074
:1002B30008F888C028180800203F200126382000AD
:1002C30008F8080000000000203F20202020300014
:1002D30008F8F800F8F80800203F003F003F20002E
:1002E30008F830C00008F808203F200007183F0036
:1002F300E01008080810E0000F10202020100F0065
:1003030008F808080808F000203F21010101000057
:10031300E01008080810E0000F18242438504F009C
:1003230008F8888888887000203F2000030C30205C
:1003330000708808080838000038202121221C009A
:10034300180808F8080818000000203F20000000E3
:1003530008F808000008F808001F202020201F00CC
:100363000878880000C83808000007380E0100002C
:10037300F80800F80008F800033C0700073C0300F6
:10038300081868808068180820302C03032C30205C
:100393000838C800C83808000000203F20000000CB
:1003A30010080808C8380800203826212020180023
:1003B300000000FE020202000000007F40404000F7
:1003C300000C30C000000000000000010638C0002F
:1003D30000020202FE000000004040407F000000D7
:1003E30000000402020204000000000000000000FC
:1003F30000000000000000008080808080808080FA
:1004030000020204000000000000000000000000E1
:1004130000008080808000000019242222223F20D7
:1004230008F8008080000000003F112020110E001A
:100433000000008080800000000E112020201100A9
:10044300000000808088F800000E112020103F205B
:100453000000808080800000001F222222221300DF
:10046300008080F0888888180020203F202000002A
:100473000000808080808000006B949494936000DF
:1004830008F8008080800000203F210000203F20EA
:1004930000809898000000000020203F20200000EA
:1004A300000000809898000000C08080807F0000DA
:1004B30008F8000080808000203F24022D302000B7
:1004C300000808F8000000000020203F2020000062
:1004D3008080808080808000203F20003F20003F7C
:1004E3008080008080800000203F210000203F208A
:1004F3000000808080800000001F202020201F003B
:10050300808000808000000080FFA12020110E0069
:100513000000008080808000000E112020A0FF805A
:10052300808080008080800020203F212000010007
:10053300000080808080800000332424242419005C
:10054300008080E0808000000000001F2020000069
:100553008080000000808000001F202020103F20AA
:10056300808080000080808000010E30080601003A
:1005730080800080008080800F300C030C300F00DF
:1005830000808000808080000020312E0E3120000A
:10059300808080000080808080818E70180601003A
:1005A30000808080808080000021302C2221300058
:1005B30000000000807C020200000000003F404079
:1005C30000000000FF00000000000000FF0000002A
:1005D3000002027C800000000040403F0000000059
:1005E30000060101020204040000000000000000F4
:090AC500D2A1D2A0C2A0C2A1225C
:070ACE00D2A1C2A0D2A022B8
:0B0A8D00120A3B120A98AF04120A3B49
:050A9800D2A1C2A12261
:070A3400AC07120AC57F7830
:100A3B00C2A1E4FEAD07ED5480B48004D2A08002C5
:0F0A4B00C2A0EF25E0FFD2A1C2A10EEEB408E5D4
:010A5A002279
:0E0A9D00120A34120A98E4FF120A8D020ACEE1
:0E0AAB00120A34120A987F40120A8D020ACEF7
:100A5B00120A6CE4FDFCFFFE120A6C7F10E4FDFC35
:010A6B00FE8C
:100A6C00AB07AA06ED4C6003020AABAF03120A9D5A
:010A7C002257
:1009D200A907ED24B0FFE433FEE4FDFC120A6CE942
:1009E200240254F0C4540F7E004410FFE4FDFC12B4
:1009F2000A6CE92402FF7E00EF540FFFE4FDFC02C3
:020A02000A6C7C
:100A0400E4F9E924B0FFE433FEE4FDFC120A5BE4FC
:100A1400900011F07D017C00E4FFFE120A6C90004E
:0F0A240011E004F0E0C3948040EA09E9B408D37C
:010A330022A0
:0B08EE00900012EDF0900011EFF0FD03
:1008F900E4900013F0F9EB24E0F0EDD3947F400A83
:10090900E4900011F0A3E02402F0900011E0FFA3AD
:10091900E0FD1209D2E4F9900013E075F010A42962
:10092900F582E435F0F583E5822403F582E5833425
:1009390000F583E493FF7E007D017C00120A6C09B7
:10094900E9B408D3900011E0FFA3E004FD1209D235
:10095900E4F9900013E075F010A429F582E435F06C
:10096900F583E582240BF582E5833400F583E4936E
:0F097900FF7E007D017C00120A6C09E9B408D3EF
:01098800224C
:0809890090000BEFF0A3EDF06C
:10099100A312071C0000000190000CE0FF14F0EF0F
:1009A1006020A3E0F8A3E0F9A3E0FAA3E0FB900044
:1009B1000BE0FFE4FCFDFE1205F390000D120710A1
:1009C10080D690000DE0FCA3E0FDA3E0FEA3E0FFD4
:0109D1002203
:08082900900000EFF0A3EDF0D8
:10083100E490000AF0900008F0900006E0FF9000BC
:1008410008E0FEC39F40030208EDC3EF9E14FD7F45
:100851000A120989A804A905AA06AB07900002E0BB
:10086100FCA3E0FDA3E0FEA3E0FF12067EE47B0A09
:10087100FAF9F812067E900009EBF0A3E0704890B7
:100881000006E014FF900008E0FEC39F5039A3E08A
:10089100702F900007E07013EE75F008A4FF900030
:1008A10000E02FFFA3E0FD7B208035900008E0757C
:1008B100F008A4FF900000E02FFFA3E0FD7B308053
:1008C1001F90000A7401F0900008E075F008A4FF81
:1008D100900000E02FFFA3E0FD900009E02430FB31
:0C08E1001208EE900008E004F002083A53
:0108ED0022E8
:10074D00E4FDFC7FAEFE120A5B7F40120A68E4FDF9
:10075D00FC7FB0FE120A6CE4FDFC7F81FE120A6C78
:10076D00E4FDFC7FFFFE120A6CE4FDFC7FA1FE128E
:10077D000A6CE4FDFC7FA6FE120A6CE4FDFC7FA86A
:10078D00FE120A6CE4FDFC7F3FFE120A6CE4FDFCD8
:10079D007FC8FE120A6CE4FDFC7FD3FE120A6CE4E6
:1007AD00FDFCFFFE120A6CE4FDFC7FD5FE120A6C07
:1007BD00E4FDFC7F80FE120A6CE4FDFC7FD8FE1286
:1007CD000A6CE4FDFC7F05FE120A6CE4FDFC7FD98A
:1007DD00FE120A6CE4FDFC7FF1FE120A6CE4FDFCD6
:1007ED007FDAFE120A6CE4FDFC7F12FE120A6CE445
:1007FD00FDFC7FDBFE120A6CE4FDFC7F30FE120A6D
:10080D006CE4FDFC7F8DFE120A6CE4FDFC7F14FE92
:0C081D00120A6CE4FDFC7FAFFE020A6CC6
:03000000020AB938
:0C0AB900787FE4F6D8FD758107020A7D05
:1005F300E88FF0A4CC8BF0A42CFCE98EF0A42CFCA7
:100603008AF0EDA42CFCEA8EF0A4CDA8F08BF0A424
:100613002DCC3825F0FDE98FF0A42CCD35F0FCEB83
:100623008EF0A4FEA9F0EB8FF0A4CFC5F02ECD3948
:0F063300FEE43CFCEAA42DCE35F0FDE43CFC22B5
:1006420075F008758200EF2FFFEE33FECD33CDCC6F
:1006520033CCC58233C5829BED9AEC99E5829840F2
:100662000CF582EE9BFEED9AFDEC99FC0FD5F0D6CF
:10067200E4CEFBE4CDFAE4CCF9A88222B800C1B9F9
:100682000059BA002DEC8BF084CFCECDFCE5F0CB37
:10069200F97818EF2FFFEE33FEED33FDEC33FCEB70
:1006A20033FB10D703994004EB99FB0FD8E5E4F92B
:1006B200FA227818EF2FFFEE33FEED33FDEC33FC18
:1006C200C933C910D7059BE99A4007EC9BFCE99A0C
:1006D200F90FD8E0E4C9FAE4CCFB2275F010EF2F51
:1006E200FFEE33FEED33FDCC33CCC833C810D70751
:1006F2009BEC9AE899400AED9BFDEC9AFCE899F88C
:0E0702000FD5F0DAE4CDFBE4CCFAE4C8F9221E
:0C071000ECF0A3EDF0A3EEF0A3EFF0225C
:10071C00A8828583F0D083D082120733120733125C
:10072C000733120733E473E493A3C583C5F0C58381
:10073C00C8C582C8F0A3C583C5F0C583C8C582C827
:01074C00228A
:00000001FF
